:100000000C9462000C948A000C948A000C948A0070
:100010000C948A000C948A000C948A000C948A0038
:100020000C948A000C948A000C948A000C948A0028
:100030000C948A000C948A000C948A000C948A0018
:100040000C94AA110C948A000C948A000C948A00D7
:100050000C948A000C948A000C948A000C948A00F8
:100060000C948A000C948A000000000024002700F1
:100070002A0000000000250028002B0000000000DE
:1000800023002600290004040404040404040202DA
:100090000202020203030303030301020408102007
:1000A0004080010204081020010204081020000012
:1000B0000007000201000003040600000000000029
:1000C0000000D80611241FBECFEFD8E0DEBFCDBFA1
:1000D00011E0A0E0B1E0E0ECF8E202C005900D9282
:1000E000AA3AB107D9F711E0AAEAB1E001C01D921E
:1000F000AD3FB107E1F710E0C4ECD0E004C02297B7
:10010000FE010E942314C23CD107C9F70E941D13AF
:100110000C945E140C940000A0E0B0E0E2E9F0E082
:100120000C942F14EC01A880B980CA80DB80A11444
:10013000B104C104D10441F484E2A82E89EDB82EA3
:100140008BE5C82E87E0D82EC601B5012DE133EF2F
:1001500041E050E00E94061427EA31E440E050E01C
:100160000E94C5137B018C01C601B5012DE133EF5F
:1001700041E050E00E940614CA01B9012CEE34EFB0
:100180004FEF5FEF0E94C5136E0D7F1D801F911F03
:1001900097FF04C061507040804090486883798325
:1001A0008A839B839B01AC015F77B901CA01CDB7FC
:1001B000DEB7EAE00C944B140E948C00089581E9AC
:1001C00091E00E948C0008956093910170939201D8
:1001D000809393019093940108951092DA01109204
:1001E000D9018091DB019091DC01E3ECF1E020E0AA
:1001F00030E014C080819181892B19F480E090E077
:1002000010C084819581892B31F02E5F3F4F3C9641
:1002100084E090E003C082E090E003C02330310529
:100220004CF39093DC018093DB013093DA0120934F
:10023000D9010895DC011092DA011092D901609180
:10024000DB017091DC0120E030E029C0F901EE0F04
:10025000FF1FE20FF31FEE0FFF1FED53FE4F40E0B5
:1002600050E017C0819191914F5F5F4F8A179B07B4
:1002700081F482E090E0AC01421B530B5093DA0111
:100280004093D901861B970B9093DC018093DB018F
:100290000895BA014330510529F72F5F3F4F2330AE
:1002A0003105A4F27093DC016093DB013093DA0135
:1002B0002093D9010895CF93DF93DC01EB011092D5
:1002C000DA011092D9014091DB015091DC0160E02C
:1002D00070E019C0FB01EE0FFF1FE60FF71FEE0FD6
:1002E000FF1FED53FE4F20E030E007C08191919158
:1002F0002F5F3F4F8A179B0749F0A9012330310533
:10030000A9F76F5F7F4F6330710524F34093DB01E2
:100310005093DC017093DA016093D9011092DE01F1
:100320001092DD014091EB015091EC01A0E0B0E0B2
:1003300042C0FD01EE0FFF1FEA0FFB1FEE0FFF1F74
:10034000ED53FE4F20E030E031C0819191912F5F5D
:100350003F4F8C179D0751F54093EB015093EC01F3
:10036000B093DE01A093DD012091DB013091DC012F
:100370006A177B0761F4C90101968417950749F153
:1003800080E0215030402417350721F522C0241782
:100390003507E9F4CB0101968A179B07D1F080E07D
:1003A000615070406A177B07A9F413C0A90123307C
:1003B000310559F61196A330B1050CF4BACF50931C
:1003C000EC014093EB01B093DE01A093DD0180E0EE
:1003D00001C081E0DF91CF910895AC018091F101DE
:1003E000882321F04115510521F006C04115510522
:1003F00049F420E0822F089520E040FF21E081E0D1
:100400002827F8CF242F20952170F4CFAF92BF92E8
:10041000CF92DF92EF92FF920F931F93CF93DF93D0
:100420001092D801E090D901F090DA01C090DB0180
:10043000D090DC01EC14FD0429F581E08093D80113
:100440001092F3011092F20116C0CE15DF0509F4E7
:10045000D4C0FE0143E0EE0FFF1F4A95E1F7ED53D4
:10046000FE4F808191810E94ED01882309F0C5C073
:100470001092D80107C0C091F201D091F301C330AE
:10048000D1051CF38091D801882309F099C01092FE
:10049000D70102E010E00E191F090C151D0571F5BA
:1004A00081E08093D7011092F3011092F20132E0C3
:1004B000A32EB12C1CC0C017D10709F4A4C0C501DC
:1004C0008C1B9D0BFC01EE0FFF1FE80FF91FEC0FBB
:1004D000FD1FEE0FFF1FED53FE4F808191810E94A3
:1004E000ED01882309F08FC01092D70107C0C09199
:1004F000F201D091F301C330D105ECF28091D70124
:10050000882309F05DC081E08093D6011092F30149
:100510001092F20119C0CE15DF0509F47AC0FE0170
:10052000EE0FFF1FEC0FFD1FEC0DFD1DEE0FFF1F6B
:10053000ED53FE4F808191810E94ED01882309F0E7
:1005400068C01092D60107C0C091F201D091F301AA
:10055000C330D10504F38091D601882309F065C02A
:1005600081E08093D5011092F3011092F20187018E
:10057000000F111F0E0D1F1D15C0CC15DD0509F450
:100580004EC0F801EC0FFD1FEE0FFF1FED53FE4FA5
:10059000808191810E94ED01882309F040C0109272
:1005A000D50143C0C091F201D091F301C330D10510
:1005B00024F33BC08091D601882311F420E011C0C0
:1005C00020E0F701EE0FFF1FEE0DFF1DEC0DFD1DEE
:1005D000EE0FFF1FED53FE4F80819181892B09F4AF
:1005E00021E0822FDF91CF911F910F91FF90EF902B
:1005F000DF90CF90BF90AF9008952196D093F301F4
:10060000C093F20138CF2196D093F301C093F20149
:100610006ECF2196D093F301C093F20195CF21962E
:10062000D093F301C093F201BDCF8091D50188230F
:1006300039F6C0CF1092DA011092D90123C010927E
:10064000DC011092DB010FC00E940602882311F02A
:1006500081E008958091DB019091DC0101969093F7
:10066000DC018093DB018091DB019091DC01039739
:100670005CF38091D9019091DA0101969093DA01AF
:100680008093D9018091D9019091DA010397BCF24E
:1006900080E008950F931F93CF93DF931092C201D0
:1006A0001092C101C091D901D091DA011C161D062A
:1006B00004F5CE010197FC01EE0FFF1FE80FF91FB3
:1006C0008091DB019091DC01E80FF91FEE0FFF1F15
:1006D000ED53FE4F808191810E94ED01882331F01E
:1006E00081E090E09093C2018093C101C230D105B6
:1006F00004F5CE010196FC01EE0FFF1FE80FF91F74
:100700008091DB019091DC01E80FF91FEE0FFF1FD4
:10071000ED53FE4F808191810E94ED01882349F0C5
:100720008091C1019091C20101969093C201809382
:10073000C1010091DB011091DC0110161106ECF4EF
:10074000FE01EE0FFF1FEC0FFD1FE00FF11FEE0F7C
:10075000FF1FEF53FE4F808191810E94ED0188239E
:1007600049F08091C1019091C20101969093C2011C
:100770008093C10102301105D4F4FE01EE0FFF1F7A
:10078000EC0FFD1FE00FF11FEE0FFF1FEB53FE4FAD
:10079000808191810E94ED01882349F08091C101FF
:1007A0009091C20101969093C2018093C101809102
:1007B000C1019091C201DF91CF911F910F910895D6
:1007C000CF93DF93EC011092DA011092D9012AC085
:1007D0001092DC011092DB0115C0FC01EE0FFF1F2F
:1007E000E80FF91FE20FF31FEE0FFF1FED53FE4F4F
:1007F00080819181892BE9F40E944A038C179D071F
:10080000C1F421C02091DB013091DC018091D9013C
:100810009091DA012330310504F302969093DA01C6
:100820008093D9018091D9019091DA01039784F2E4
:100830000AC08091DB019091DC0102969093DC016B
:100840008093DB01DFCFDF91CF9108950F931F934A
:10085000CF93DF938C01EB011092DA011092D90152
:100860009091DB018091DC0140E050E062E070E0BB
:1008700037C0DA01AA0FBB1FA40FB51FAA0FBB1FF9
:10088000AD53BE4FFB01EE0FFF1FE60FF71FEE0F3C
:10089000FF1FE953FE4F20E030E019C08D919C917D
:1008A00011978017910779F4808191818C179D07AA
:1008B00051F42093DB013093DC015093DA01409333
:1008C000D90181E019C02F5F3F4F12963297922FC6
:1008D000832F2330310511F74F5F5F4F6150704018
:1008E0004330510534F29093DB018093DC01509347
:1008F000DA014093D90180E0DF91CF911F910F91F0
:100900000895AC018091F101882321F04115510532
:1009100021F006C04115510539F420E0822F0895D9
:10092000242F20952170FACF20E040FF21E081E0C4
:100930002827F4CFAF92BF92CF92DF92EF92FF922F
:100940000F931F93CF93DF931092D801E090D901BA
:10095000F090DA01C090DB01D090DC01EC14FD04D2
:1009600029F581E08093D8011092F3011092F201F1
:1009700016C0CE15DF0509F4D4C0FE0143E0EE0F2A
:10098000FF1F4A95E1F7ED53FE4F808191810E9450
:100990008104882309F0C5C01092D80107C0C09116
:1009A000F201D091F301C330D1051CF38091D8013D
:1009B000882309F099C01092D70102E010E00E19C7
:1009C0001F090C151D0571F581E08093D701109268
:1009D000F3011092F20132E0A32EB12C1CC0C0171B
:1009E000D10709F4A4C0C5018C1B9D0BFC01EE0FBF
:1009F000FF1FE80FF91FEC0FFD1FEE0FFF1FED5358
:100A0000FE4F808191810E948104882309F08FC06C
:100A10001092D70107C0C091F201D091F301C33009
:100A2000D105ECF28091D701882309F05DC081E007
:100A30008093D6011092F3011092F20119C0CE15E5
:100A4000DF0509F47AC0FE01EE0FFF1FEC0FFD1F5A
:100A5000EC0DFD1DEE0FFF1FED53FE4F80819181C8
:100A60000E948104882309F068C01092D60107C053
:100A7000C091F201D091F301C330D10504F380910C
:100A8000D601882309F065C081E08093D5011092DA
:100A9000F3011092F2018701000F111F0E0D1F1DAF
:100AA00015C0CC15DD0509F44EC0F801EC0FFD1F93
:100AB000EE0FFF1FED53FE4F808191810E94810454
:100AC000882309F040C01092D50143C0C091F201C3
:100AD000D091F301C330D10524F33BC08091D601FE
:100AE000882311F420E011C020E0F701EE0FFF1F72
:100AF000EE0DFF1DEC0DFD1DEE0FFF1FED53FE4F24
:100B000080819181892B09F421E0822FDF91CF919F
:100B10001F910F91FF90EF90DF90CF90BF90AF901B
:100B200008952196D093F301C093F20138CF219616
:100B3000D093F301C093F2016ECF2196D093F301CD
:100B4000C093F20195CF2196D093F301C093F201A7
:100B5000BDCF8091D501882339F6C0CF8091C301E4
:100B60009091C401009709F457C04EC08091CB0109
:100B70009091CC01009709F44FC049C08091D301F6
:100B80009091D401009709F447C044C08091CB01F3
:100B90009091CC01009709F44DC047C08091CF01DE
:100BA0009091D001009709F445C042C08D919C916D
:100BB0001197009709F450C047C012968D919C91EF
:100BC0001397009709F448C042C014968D919C91E8
:100BD0001597009709F440C03DC086819781009722
:100BE00009F44CC040C084859585009709F446C03F
:100BF0003DC023303105D4F23093F3012093F2014C
:100C000080E0089581E0089580FD06C0AFCF80FDAB
:100C100003C0B4CF80FFF6CF8091C7019091C80187
:100C2000009741F080FD06C0B1CF80FD03C0B6CF74
:100C300080FFE8CF1092F3011092F201E3ECF1E0B3
:100C4000DF0120E030E0D5CF80FD06C0B6CF80FDCB
:100C500003C0BBCF80FF0CC080819181009771F0F1
:100C600080FD0CC0BACF80FD09C0BDCF80FD06C09D
:100C70003093F3012093F20181E008952F5F3F4FFD
:100C800032961696B6CF8091C3019091C401009719
:100C900009F457C04EC08091CB019091CC010097D0
:100CA00009F44FC049C08091D3019091D4010097BD
:100CB00009F447C044C08091CB019091CC010097CA
:100CC00009F44DC047C08091CF019091D0010097A9
:100CD00009F445C042C08D919C911197009709F489
:100CE00050C047C012968D919C911397009709F4BC
:100CF00048C042C014968D919C911597009709F4B5
:100D000040C03DC086819781009709F44CC040C027
:100D100084859585009709F446C03DC02330310590
:100D2000D4F23093F3012093F20180E0089581E042
:100D3000089580FF06C0AFCF80FF03C0B4CF80FD11
:100D4000F6CF8091C7019091C801009741F080FFD4
:100D500006C0B1CF80FF03C0B6CF80FDE8CF1092B0
:100D6000F3011092F201E3ECF1E0DF0120E030E06A
:100D7000D5CF80FF06C0B6CF80FF03C0BBCF80FDBC
:100D80000CC080819181009771F080FF0CC0BACFB8
:100D900080FF09C0BDCF80FF06C03093F3012093D0
:100DA000F20181E008952F5F3F4F32961696B6CF3D
:100DB000CF92EF920F938AEA91E068E049E02AE04F
:100DC0000BE07CE0E72E5DE0C52E0E944F110F91F5
:100DD000EF90CF9008958AEA91E067E040E00E94AA
:100DE00062108091F101882329F08AEA91E060E0A5
:100DF00071E004C08AEA91E06EE071E00E94C213E3
:100E000008958AEA91E067E040E00E9462108091D4
:100E1000E9019091EA01009741F005C08AEA91E06A
:100E20006CE171E006C080FFF9CF8AEA91E06AE2E6
:100E300071E00E94C21308958091950190919601EE
:100E4000009729F48AEA91E067E043E09DC0813091
:100E5000910561F41092DA011092D9011092DC012F
:100E60001092DB018AEA91E060E010C082309105C7
:100E700079F481E090E09093DA018093D9011092A7
:100E8000DC011092DB018AEA91E062E040E07CC084
:100E90008330910571F482E090E09093DA018093C1
:100EA000D9011092DC011092DB018AEA91E064E042
:100EB000EDCF8430910571F41092DA011092D901CE
:100EC00081E090E09093DC018093DB018AEA91E07D
:100ED00060E023C08530910571F481E090E090934B
:100EE000DA018093D9019093DC018093DB018AEAD7
:100EF00091E062E012C08630910589F482E090E0D2
:100F00009093DA018093D90181E090E09093DC0125
:100F10008093DB018AEA91E064E041E035C08730EC
:100F2000910571F41092DA011092D90182E090E0FB
:100F30009093DC018093DB018AEA91E060E023C0BA
:100F40008830910581F481E090E09093DA018093FC
:100F5000D90182E090E09093DC018093DB018AEA82
:100F600091E062E010C08930910589F482E090E060
:100F70009093DA018093D9019093DC018093DB0197
:100F80008AEA91E064E042E00E94621008950C97C2
:100F900031F48AEA91E067E042E00E94621008952D
:100FA0000F931F930AEA11E0C80167E042E00E9434
:100FB0006210C80168E371E00E94C213C80167E0D3
:100FC00043E00E946210C8016EE371E00E94C21308
:100FD0001F910F91089580E00E9488119093F00175
:100FE0008093EF018D3591051CF481E090E03DC0C8
:100FF0008A3B91051CF482E090E037C021E0873104
:1010000092071CF483E090E030C021E0843792071F
:101010001CF484E090E029C021E0813D92071CF49B
:1010200085E090E022C022E08E3292071CF486E038
:1010300090E01BC022E08B3892071CF487E090E020
:1010400014C022E0883E92071CF488E090E00DC0B6
:1010500023E0853492071CF489E090E006C023E089
:10106000823A92073CF48CE090E090939601809352
:10107000950108958F5F934024F410929601109289
:1010800095010895DF93CF93CDB7DEB728970FB6BC
:10109000F894DEBF0FBECDBF8AEA91E064E144E080
:1010A00020E00E9499102091DB013091DC01E3ECFB
:1010B000F1E080E090E00AC0118210821382128277
:1010C000158214820196369623E030E08330910534
:1010D0009CF33093DC012093DB019093DA01809341
:1010E000D9018AEA91E00E944610FE01319688E01B
:1010F000DF011D928A95E9F784E08C838AEA91E00A
:1011000060E0AF010E941E1080E060E00E94371294
:101110008EE060E00E94371281E00E9488110E94F8
:101120006C1328960FB6F894DEBF0FBECDBFCF91DB
:10113000DF9108951092DC011092DB014EC0423025
:10114000510529F48AEA91E060E042E003C08AEAAE
:1011500091E060E00E9462101092DA011092D901D1
:101160002BC0FC01EE0FFF1FE80FF91FE20FF31F6A
:10117000EE0FFF1FED53FE4F0190F081E02D3097F1
:1011800031F48AEA91E060E00E94141007C0E0FDAB
:101190002DC08AEA91E06FE40E949E138AEA91E0F2
:1011A00060E20E949E138091D9019091DA0101962C
:1011B0009093DA018093D9018091D9019091DA015D
:1011C0002091DB013091DC018330910554F22F5FD7
:1011D0003F4F3093DC012093DB014091DB015091C4
:1011E000DC01433051050CF4AACF08958AEA91E05E
:1011F00068E5D2CF0E949A088AEA91E00E945010D6
:1012000080E00E94CA12892BD9F380E00E94CA12A2
:10121000892BD9F78AEA91E00E9446101092ED01DD
:1012200008950F931F930AEA11E0C80167E040E0B8
:101230000E946210C80163E471E00E94C2130E9420
:10124000FA081F910F9108950F931F930AEA11E076
:10125000C80167E040E00E946210C80161E571E0EA
:101260000E94C2130E94FA081F910F9108950F93D4
:101270001F930AEA11E0C80167E040E00E94621093
:10128000C8016FE571E00E94C2130E94FA081F9125
:101290000F9108950F931F930AEA11E0C80167E0C8
:1012A00040E00E946210C8016DE671E00E94C21326
:1012B0000E94FA081F910F9108950F931F930AEA55
:1012C00011E0C80167E040E00E946210C8016BE7CE
:1012D00071E00E94C2130E94FA081F910F910895B5
:1012E0008091F101882329F40E944306882309F0A4
:1012F0006EC08091F101882309F47EC00E94AE0582
:10130000882309F479C063C00E94AE05882309F0E0
:101310006DC08091F101882309F474C00E944306D6
:10132000882309F46FC062C01092DA011092D901CB
:101330006091DB017091DC0140E050E018C0FA01DF
:10134000EE0FFF1FE40FF51FEE0FFF1FED53FE4FD3
:1013500020E030E006C0819191912F5F3F4F892BB3
:1013600049F0B90123303105B1F74F5F5F4F43308A
:1013700051052CF36093DB017093DC015093DA018B
:101380004093D901FA01EE0FFF1FE40FF51F809182
:10139000DB019091DC01E80FF91FEE0FFF1FED5309
:1013A000FE4F89E090E0918380830E949A088091AB
:1013B000F101882321F40E944306882341F480919F
:1013C000F101882339F10E94AE05882319F10E94AA
:1013D0005D0908950E94AE05882341F48091F101D2
:1013E0008823E9F00E9443068823C9F00E94370948
:1013F00008950E941C0708958091F101882309F047
:1014000088CF82CF8091E9019091EA01099709F490
:101410008BCFEFCF8091F101882301F7DBCF0E94C2
:10142000240908951F93CF93DF93EC011092C0011C
:101430001092BF011092DA011092D90111E073C02D
:101440001092DC011092DB015CC0F901EE0FFF1F6E
:10145000E20FF31FE40FF51FEE0FFF1FED53FE4FDA
:1014600080819181892B09F0F7C0C330D10529F122
:10147000CA01822B932B80FD08C02097F1F0C13068
:10148000D10519F40E944A030BC0C230D10561F4A2
:10149000CA01821B930B97FF03C0909581959F4FC4
:1014A000019709F0D9C009C0C430D10509F0D4C0F2
:1014B0000E949A04882309F4CFC08091D9019091A9
:1014C000DA01FC01EE0FFF1FE80FF91F8091DB012D
:1014D0009091DC01E80FF91FE052FE4F10838091DC
:1014E000BF019091C00101969093C0018093BF010C
:1014F0008091DB019091DC0101969093DC01809357
:10150000DB014091DB015091DC012091D901309148
:10151000DA01433051050CF498CF2F5F3F4F3093E1
:10152000DA012093D9018091D9019091DA010397D2
:101530000CF486CF8091BF019091C0011816190656
:101540000CF085C08130910571F51092DA0110928E
:10155000D9019091DB016091DC0140E050E01BC0BB
:10156000FA01EE0FFF1FE40FF51FE052FE4F20E0DF
:1015700030E00AC081912F5F3F4F882329F090937C
:10158000DB016093DC0143C0922F632F23303105D0
:1015900089F74F5F5F4F4330510514F39093DB01A0
:1015A0006093DC0150C001969C01442737FD4095B3
:1015B000542F61E070E080E090E00E944E13DB0168
:1015C0007093F3016093F2011092DA011092D90145
:1015D0009091DB018091DC0140E050E029C0FA01EC
:1015E000EE0FFF1FE40FF51FE052FE4F20E030E04A
:1015F00018C08081882391F0A130B10571F4B093B7
:10160000F301A093F2012093DB013093DC015093AE
:10161000DA014093D90181E01BC011972F5F3F4F42
:101620003196922F832F2330310519F74F5F5F4F8B
:1016300043305105A4F2B093F301A093F2019093CB
:10164000DB018093DC015093DA014093D90180E003
:10165000DF91CF911F9108958091D9019091DA0186
:10166000FC01EE0FFF1FE80FF91F8091DB01909145
:10167000DC01E80FF91FE052FE4F108239CF84E001
:1016800090E00E94120A882309F09FC18091F10125
:10169000882309F4E4C08091CB019091CC01209182
:1016A000E9013091EA01019709F055C12230310575
:1016B00009F434C182E090E063E070E00E94260407
:1016C000882309F4C4C08091E9019091EA0104974C
:1016D00009F0BDC023C181E090E063E070E00E94AA
:1016E0002604882321F18091C3019091C4010197C0
:1016F00099F08091CF019091D001019769F080918C
:10170000C7019091C801019739F08091D301909160
:10171000D401019709F024C18091E9019091EA0177
:10172000049709F0E2C03EC081E090E0F9C020914A
:10173000C3013091C40121303105B1F08091CF0156
:101740009091D001019769F08091C7019091C801F3
:10175000019739F08091D3019091D401019709F05C
:1017600007C12330310599F08091CF019091D001CC
:10177000039769F08091C7019091C801039739F0F0
:101780008091D3019091D401039709F0F1C0809129
:10179000E9019091EA018430910509F4A6C0069709
:1017A00009F0A3C082E090E0BBC08091C501909198
:1017B000C601019769F08091D1019091D201019702
:1017C00039F08091CD019091CE01019709F0D9C0F7
:1017D0002330310599F08091C5019091C60103979E
:1017E00069F08091D1019091D201039739F08091F5
:1017F000CD019091CE01039709F0C3C08091E9011A
:101800009091EA01049719F582E090E0A1C08091DF
:10181000E9019091EA010497D1F48091C30190917C
:10182000C401019771F18091CF019091D00101978E
:1018300041F18091C7019091C801019711F1809108
:10184000D3019091D401019709F0A5C01AC00E945C
:101850001A03882309F0B9C083E090E061C02091A9
:10186000E9013091EA012130310509F457C0809136
:10187000CB019091CC01029709F092C02330310541
:1018800019F481E090E089C08091C3019091C40176
:10189000049799F08091CF019091D001049769F05D
:1018A0008091C7019091C801049739F08091D301CC
:1018B0009091D401049709F07BC02530310509F0DF
:1018C00084C031C08091C5019091C601049769F030
:1018D0008091D1019091D201049739F08091CD018E
:1018E0009091CE01049709F070C00E941A030895E8
:1018F0008091CF019091D001029769F08091C7014A
:101900009091C801029739F08091D3019091D40150
:10191000029709F055C02330310529F480E090E0AA
:101920000E94120A08950E94ED00089581E090E05F
:101930009093DA018093D9019093DC018093DB01CD
:1019400008950E941A03882309F03FC080E090E0C8
:101950000E94E00308952230310509F0BCCEE6CFA5
:101960008091E9019091EA01049709F0DDCE1ACF48
:101970002091C9013091CA012130310509F015CFFC
:101980002ACF81E090E063E070E00E945B01882351
:1019900009F43DCF5CCF83E090E00E941A010895E6
:1019A0008091C3019091C401029709F0A1CFB3CFF8
:1019B0008091C9019091CA01049709F083CF95CF16
:1019C0002330310509F0BDCFB1CF08958F929F929A
:1019D000AF92BF92CF92DF92FF920F931F93CF935C
:1019E000DF938AEA91E00E9491108AEA91E069E827
:1019F00071E00E94C2138AEA91E060E041E00E9437
:101A000062108AEA91E06DE871E00E94C2138AEAEE
:101A100091E060E040E00E94621081E08093DF018D
:101A2000FBE0AF2EB12CEAE08E2E912C79E0C72E90
:101A3000D12C01E010E031C280E00E948811909327
:101A4000F0018093EF01805092402CF49092960127
:101A50008092950104C0B0929601A09295012091C8
:101A6000950130919601809197019091980182178C
:101A7000930791F030939801209397012A30310514
:101A800029F48AEA91E060E040E004C08AEA91E04B
:101A900060E041E00E94621080E00E94CA12892B3F
:101AA00009F4FBC180E00E94CA12892BD9F780910A
:101AB0009501909196010A9709F0E7C08AEA91E0B2
:101AC0000E94911081E08093EE01FF24F394D7C02F
:101AD0000E94EB0780919501909196019093980157
:101AE000809397011093EA010093E901F092ED01D0
:101AF0008091F10180958093F1012091DB0130917B
:101B0000DC01E3ECF1E080E090E00AC01182108299
:101B100013821282158214820196369623E030E0F9
:101B2000833091059CF33093DC012093DB0190938B
:101B3000DA018093D9010E949A080E94D0070E947E
:101B4000EB060E941C0796C08091E9019091EA0182
:101B50000E948104882369F18AEA91E00E94501072
:101B60000E943F0B8AEA91E00E9446102091E90111
:101B70003091EA018091D9019091DA01FC01EE0FD8
:101B8000FF1FE80FF91F8091DB019091DC01E80F46
:101B9000F91FEE0FFF1FED53FE4F318320832F5FA0
:101BA0003F4F3093EA012093E9010E949A080E9476
:101BB00070090E94EB072091950130919601809168
:101BC0009701909198018217930731F03093980113
:101BD000209397010E941C0780E00E94CA12892B63
:101BE00009F448C080E00E94CA12892BD9F780917D
:101BF0009501909196018C30910519F41092ED01A8
:101C000039C0892B61F41092DF011092ED0110921E
:101C1000EE018091F10180958093F1012BC0C0917C
:101C2000E901D091EA01CE010E94ED01882311F172
:101C30008091D9019091DA012091DB013091DC0192
:101C4000FC01EE0FFF1FE80FF91FE20FF31FEE0F6D
:101C5000FF1FED53FE4F80819181892B59F4D18371
:101C6000C0832196D093EA01C093E9010E949A08AB
:101C70000E9470098091ED01882309F065CF809161
:101C8000EE01882309F024CF08C18AEA91E00E947E
:101C9000911081E08093EE01FF24F394F9C00E943B
:101CA000EB07809195019091960190939801809314
:101CB00097011093EA010093E9012091DB01309133
:101CC000DC01E3ECF1E080E090E00AC011821082D8
:101CD00013821282158214820196369623E030E038
:101CE000833091059CF33093DC012093DB019093CA
:101CF000DA018093D9010E949A080E94D0070E94BD
:101D000001070E941C07F092ED01BDC00E94EB0785
:101D100020919501309196018091970190919801C1
:101D20008217930731F030939801209397010E9416
:101D30001C0780E00E94CA12892B09F4A4C080E02D
:101D40000E94CA12892BD9F7809195019091960132
:101D50008C30910519F41092ED0195C0892B39F45E
:101D60001092DF011092ED011092EE018CC0809173
:101D7000D9019091DA012091DB013091DC01FC0165
:101D8000EE0FFF1FE80FF91FE20FF31FEE0FFF1F0B
:101D9000ED53FE4F80819181892B09F074C08091B1
:101DA000E9019091EA019183808301969093EA0181
:101DB0008093E9010E949A080E94AE05882309F0E9
:101DC00051C00E944306882309F053C08091E90165
:101DD0009091EA01099709F052C01092DA0110922D
:101DE000D9016091DB017091DC0140E050E018C046
:101DF000FA01EE0FFF1FE40FF51FEE0FFF1FED536B
:101E0000FE4F20E030E006C0819191912F5F3F4F5F
:101E1000892B49F0B90123303105B1F74F5F5F4F8E
:101E2000433051052CF36093DB017093DC01509338
:101E3000DA014093D901FA01EE0FFF1FE40FF51FFD
:101E40008091DB019091DC01E80FF91FEE0FFF1F7D
:101E5000ED53FE4FD182C0820E949A080E94AE05C7
:101E6000882319F00E944A090EC00E944306882365
:101E700019F00E94110907C00E94240904C00E94A1
:101E800001070E941C078091ED01882309F03ECFD5
:101E90008091EE01882309F002CF8091DF01882331
:101EA00009F0CACDDF91CF911F910F91FF90DF9084
:101EB000CF90BF90AF909F908F9008950F931F93F6
:101EC0008C01FC01868160E00E94761281E090E046
:101ED0000E94F211F801868161E00E94761281E091
:101EE00090E00E94F211F801868160E00E94761273
:101EF00084E690E00E94F2111F910F910895CF9215
:101F0000DF92EF92FF920F931F93CF93DF93D82E20
:101F1000C92E282F392FC9018C01C0E0D0E0E62E50
:101F2000FF24F801878161E00E943712B7010C2E6F
:101F300002C0759567950A94E2F76170F801878190
:101F40000E94761221960F5F1F4FC830D10549F7C6
:101F50008D2D9C2D0E945E0FDF91CF911F910F91CF
:101F6000FF90EF90DF90CF900895CF92DF92EF92A5
:101F7000FF920F931F93CF93DF93D82EC92E282F54
:101F8000392FC9018C01C0E0D0E0E62EFF24F80112
:101F9000878161E00E943712B7010C2E02C075954F
:101FA00067950A94E2F76170F80187810E947612C2
:101FB00021960F5F1F4FC430D10549F78D2D9C2D01
:101FC0000E945E0FDF91CF911F910F91FF90EF90D4
:101FD000DF90CF9008951F93CF93DF93EC01162FDE
:101FE0008C81642F0E9476128D818F3F19F060E002
:101FF0000E9476128F8584FF05C0CE01612F0E945A
:102000007F0F0EC0612F70E084E0759567958A950B
:10201000E1F7CE010E94B50FCE01612F0E94B50FEE
:10202000DF91CF911F91089541E00E94EB0F81E075
:1020300090E0089540E00E94EB0F0895EF92FF9228
:102040000F931F93CF93DF938C017A016770660F14
:10205000660F660F60640E941A10C0E0D0E0D801DD
:10206000ED91FC91D701AC0FBD1F0190F081E02DE7
:10207000C8016C9109952196C830D10581F7DF918F
:10208000CF911F910F91FF90EF900895FC0160890F
:10209000862F8260808B6A60CF010E941A1008959B
:1020A000FC0160896D7F608B68600E941A10089542
:1020B000FC016089862F8460808B6C60CF010E9458
:1020C0001A100895DF93CF93CDB7DEB728970FB6D8
:1020D000F894DEBF0FBECDBF9C01FE013196A2EA8F
:1020E000B1E088E00D9001928150E1F7F901838918
:1020F000481710F0482F4150E42FF0E0EE0FFF1F7B
:10210000EC0FFD1F8181680F6068C9010E941A10E1
:1021100028960FB6F894DEBF0FBECDBFCF91DF91EA
:10212000089561E00E941A1080ED97E00E94F2117C
:102130000895CF93DF93EC01423018F08F858860CB
:102140008F874B8B1C8A222329F0413019F48F850D
:1021500084608F8780E593EC0E94F2118C8160E0AF
:102160000E9476128E8160E00E9476128D818F3FF0
:1021700019F060E00E9476126F8564FD1DC0CE01EB
:1021800063E00E94B50F84E991E10E94F211CE0153
:1021900063E00E94B50F84E991E10E94F211CE0143
:1021A00063E00E94B50F86E990E00E94F211CE0133
:1021B00062E00E94B50F16C06062CE010E941A1044
:1021C00084E991E10E94F2116F856062CE010E9464
:1021D0001A1086E990E00E94F2116F856062CE01CC
:1021E0000E941A106F856062CE010E941A1084E06E
:1021F000888BCE010E945810CE010E94911082E07F
:10220000898BCE0166E00E941A10DF91CF9108956C
:102210006F927F928F92AF92CF92EF920F931F9314
:10222000DF93CF93CDB7DEB73C01162F842FF30198
:10223000448325830683E782C086A18682869D85A6
:1022400093879E8594879F8595879889968761E077
:102250000E943712F30185818F3F19F061E00E94DF
:102260003712F301868161E00E943712112319F0C1
:10227000F301178603C080E1F3018787C30160E1A2
:1022800041E020E00E949910CF91DF911F910F91C2
:10229000EF90CF90AF908F907F906F9008958F9236
:1022A000AF92CF92EF920F931F93CF93DF93DC0106
:1022B000362F542F722F102FAE2C8C2C13961C926D
:1022C0001E9212978EE991E011969C938E9300D006
:1022D00000D0EDB7FEB73196CDB7DEB719821182C7
:1022E00012821382CD0161E0432F2FEF052FE72EDD
:1022F000C12E0E9408110F900F900F900F90DF9148
:10230000CF911F910F91EF90CF90AF908F90089544
:10231000982F8E3008F09E50977080919901829589
:10232000880F880F807C892B80937C0080917A00B5
:10233000806480937A0080917A0086FDFCCF2091A2
:10234000780040917900942F80E030E0282B392BE1
:10235000C90108951F920F920FB60F9211242F9367
:102360003F938F939F93AF93BF938091F801909188
:10237000F901A091FA01B091FB013091FC010196A5
:10238000A11DB11D232F2D5F2D3720F02D57019654
:10239000A11DB11D2093FC018093F8019093F901D8
:1023A000A093FA01B093FB018091F4019091F501A3
:1023B000A091F601B091F7010196A11DB11D809386
:1023C000F4019093F501A093F601B093F701BF914A
:1023D000AF919F918F913F912F910F900FBE0F90D2
:1023E0001F901895019739F0880F991F880F991F32
:1023F00002970197F1F70895789484B5826084BDBF
:1024000084B5816084BD85B5826085BD85B58160F8
:1024100085BDEEE6F0E0808181608083E1E8F0E058
:102420001082808182608083808181608083E0E887
:10243000F0E0808181608083E1EBF0E08081846066
:102440008083E0EBF0E0808181608083EAE7F0E068
:1024500080818460808380818260808380818160CC
:1024600080838081806880831092C1000895CF931B
:10247000DF93482F50E0CA0186569F4FFC013491EC
:102480004A575F4FFA018491882369F190E0880FE1
:10249000991FFC01E859FF4FA591B491FC01EE583A
:1024A000FF4FC591D491662351F42FB7F8948C91C6
:1024B000932F909589238C93888189230BC0623058
:1024C00061F42FB7F8948C91932F909589238C9376
:1024D0008881832B88832FBF06C09FB7F8948C9187
:1024E000832B8C939FBFDF91CF910895482F50E0AD
:1024F000CA0182559F4FFC012491CA0186569F4F05
:10250000FC0194914A575F4FFA013491332309F447
:1025100040C0222351F1233071F0243028F42130BF
:10252000A1F0223011F514C02630B1F02730C1F0EF
:102530002430D9F404C0809180008F7703C080914B
:1025400080008F7D8093800010C084B58F7702C09B
:1025500084B58F7D84BD09C08091B0008F7703C0A2
:102560008091B0008F7D8093B000E32FF0E0EE0FFC
:10257000FF1FEE58FF4FA591B4912FB7F894662333
:1025800021F48C919095892302C08C91892B8C9396
:102590002FBF0895682F70E0CB0182559F4FFC013B
:1025A0002491CB0186569F4FFC0144916A577F4F7F
:1025B000FB019491992319F420E030E03CC02223E0
:1025C00051F1233071F0243028F42130A1F0223071
:1025D00011F514C02630B1F02730C1F02430D9F401
:1025E00004C0809180008F7703C0809180008F7D30
:1025F0008093800010C084B58F7702C084B58F7D32
:1026000084BD09C08091B0008F7703C08091B00075
:102610008F7D8093B000892F90E0880F991F845898
:102620009F4FFC01A591B4918C9120E030E0842370
:1026300011F021E030E0C9010895CF93DF930E94AB
:10264000FC110E944208C0E0D0E00E94E60C2097F6
:10265000E1F30E940000F9CFEF92FF920F931F93D6
:102660007B018C01611571058105910529F420E03C
:1026700030E040E050E00BC00E94DF00A80197016D
:102680000E940614AC01CB01DA019C01AD01B90135
:10269000CA011F910F91FF90EF900895EF92FF9262
:1026A0000F931F937B018C016217730784079507B3
:1026B00064F4261B370B480B590BCA01B9010E9461
:1026C0002C13E60EF71E081F191FB701C8011F9132
:1026D0000F91FF90EF900895009729F0BC0180E0E2
:1026E00090E00E94E4000895CF92DF92EF92FF9273
:1026F0000F931F93CF93DF937C016B018A01C0E09E
:10270000D0E00FC0D6016D916D01D701ED91FC9124
:102710000190F081E02DC7010995C80FD91F015024
:1027200010400115110571F7CE01DF91CF911F9176
:102730000F91FF90EF90DF90CF900895DC01ED9125
:10274000FC910190F081E02D09950895CF93DF93DE
:10275000EC016115710519F420E030E00FC0DB01D8
:102760000D900020E9F71197A61BB70BE881F981BE
:102770000280F381E02DAD0109959C01C901DF9133
:10278000CF9108950E94A6130895629FD001739F70
:10279000F001829FE00DF11D649FE00DF11D929FFD
:1027A000F00D839FF00D749FF00D659FF00D99273C
:1027B000729FB00DE11DF91F639FB00DE11DF91F60
:1027C000BD01CF0111240895A1E21A2EAA1BBB1B43
:1027D000FD010DC0AA1FBB1FEE1FFF1FA217B307ED
:1027E000E407F50720F0A21BB30BE40BF50B661F03
:1027F000771F881F991F1A9469F7609570958095C7
:1028000090959B01AC01BD01CF01089597FB092E66
:1028100005260ED057FD04D0D7DF0AD0001C38F4AF
:1028200050954095309521953F4F4F4F5F4F0895FC
:10283000F6F790958095709561957F4F8F4F9F4FDC
:102840000895EE0FFF1F0590F491E02D09942F924B
:102850003F924F925F926F927F928F929F92AF9230
:10286000BF92CF92DF92EF92FF920F931F93CF937D
:10287000DF93CDB7DEB7CA1BDB0B0FB6F894DEBF14
:102880000FBECDBF09942A88398848885F846E843A
:102890007D848C849B84AA84B984C884DF80EE8084
:1028A000FD800C811B81AA81B981CE0FD11D0FB68D
:1028B000F894DEBF0FBECDBFED010895F894FFCFB1
:1028C000706C617965722069732058202000706CEB
:1028D00061796572206973204F2020004F27732093
:1028E0006D6F7665202020202000582773206D6FA3
:1028F000766520202020200072657365740065785D
:102900006974005820776F6E21202020202020201D
:1029100000746965212020202020202020200070C4
:102920006C6179657220776F6E212020004F2077CF
:102930006F6E212020202020202000636F6D707595
:1029400074657220776F6E21005076430050765088
:1029500000010000000A000A00010000000014103D
:0A296000741300004000140054003E
:00000001FF
